{
  "_format": "hh-sol-artifact-1",
  "contractName": "MarketPlace",
  "sourceName": "contracts/MarketPlace.sol",
  "abi": [
    {
      "inputs": [],
      "stateMutability": "nonpayable",
      "type": "constructor"
    },
    {
      "inputs": [],
      "name": "ReentrancyGuardReentrantCall",
      "type": "error"
    },
    {
      "anonymous": false,
      "inputs": [
        {
          "indexed": true,
          "internalType": "uint256",
          "name": "itemId",
          "type": "uint256"
        },
        {
          "indexed": true,
          "internalType": "address",
          "name": "nftContract",
          "type": "address"
        },
        {
          "indexed": true,
          "internalType": "uint256",
          "name": "tokenId",
          "type": "uint256"
        },
        {
          "indexed": false,
          "internalType": "address",
          "name": "seller",
          "type": "address"
        },
        {
          "indexed": false,
          "internalType": "address",
          "name": "owner",
          "type": "address"
        },
        {
          "indexed": false,
          "internalType": "uint256",
          "name": "price",
          "type": "uint256"
        },
        {
          "indexed": false,
          "internalType": "bool",
          "name": "sold",
          "type": "bool"
        }
      ],
      "name": "MarketItemCreated",
      "type": "event"
    },
    {
      "inputs": [
        {
          "internalType": "address",
          "name": "nftContract",
          "type": "address"
        },
        {
          "internalType": "uint256",
          "name": "tokenId",
          "type": "uint256"
        },
        {
          "internalType": "uint256",
          "name": "price",
          "type": "uint256"
        }
      ],
      "name": "createMarketItem",
      "outputs": [],
      "stateMutability": "payable",
      "type": "function"
    },
    {
      "inputs": [
        {
          "internalType": "address",
          "name": "nftContract",
          "type": "address"
        },
        {
          "internalType": "uint256",
          "name": "itemId",
          "type": "uint256"
        }
      ],
      "name": "createMarketSale",
      "outputs": [],
      "stateMutability": "payable",
      "type": "function"
    },
    {
      "inputs": [],
      "name": "fetchItemsCreated",
      "outputs": [
        {
          "components": [
            {
              "internalType": "uint256",
              "name": "itemId",
              "type": "uint256"
            },
            {
              "internalType": "address",
              "name": "nftContract",
              "type": "address"
            },
            {
              "internalType": "uint256",
              "name": "tokenId",
              "type": "uint256"
            },
            {
              "internalType": "address payable",
              "name": "seller",
              "type": "address"
            },
            {
              "internalType": "address payable",
              "name": "owner",
              "type": "address"
            },
            {
              "internalType": "uint256",
              "name": "price",
              "type": "uint256"
            },
            {
              "internalType": "bool",
              "name": "sold",
              "type": "bool"
            }
          ],
          "internalType": "struct MarketPlace.MarketItem[]",
          "name": "",
          "type": "tuple[]"
        }
      ],
      "stateMutability": "view",
      "type": "function"
    },
    {
      "inputs": [],
      "name": "fetchMarketItems",
      "outputs": [
        {
          "components": [
            {
              "internalType": "uint256",
              "name": "itemId",
              "type": "uint256"
            },
            {
              "internalType": "address",
              "name": "nftContract",
              "type": "address"
            },
            {
              "internalType": "uint256",
              "name": "tokenId",
              "type": "uint256"
            },
            {
              "internalType": "address payable",
              "name": "seller",
              "type": "address"
            },
            {
              "internalType": "address payable",
              "name": "owner",
              "type": "address"
            },
            {
              "internalType": "uint256",
              "name": "price",
              "type": "uint256"
            },
            {
              "internalType": "bool",
              "name": "sold",
              "type": "bool"
            }
          ],
          "internalType": "struct MarketPlace.MarketItem[]",
          "name": "",
          "type": "tuple[]"
        }
      ],
      "stateMutability": "view",
      "type": "function"
    },
    {
      "inputs": [],
      "name": "fetchMyNFTs",
      "outputs": [
        {
          "components": [
            {
              "internalType": "uint256",
              "name": "itemId",
              "type": "uint256"
            },
            {
              "internalType": "address",
              "name": "nftContract",
              "type": "address"
            },
            {
              "internalType": "uint256",
              "name": "tokenId",
              "type": "uint256"
            },
            {
              "internalType": "address payable",
              "name": "seller",
              "type": "address"
            },
            {
              "internalType": "address payable",
              "name": "owner",
              "type": "address"
            },
            {
              "internalType": "uint256",
              "name": "price",
              "type": "uint256"
            },
            {
              "internalType": "bool",
              "name": "sold",
              "type": "bool"
            }
          ],
          "internalType": "struct MarketPlace.MarketItem[]",
          "name": "",
          "type": "tuple[]"
        }
      ],
      "stateMutability": "view",
      "type": "function"
    },
    {
      "inputs": [],
      "name": "getListingPrice",
      "outputs": [
        {
          "internalType": "uint256",
          "name": "",
          "type": "uint256"
        }
      ],
      "stateMutability": "view",
      "type": "function"
    },
    {
      "inputs": [],
      "name": "listingPrice",
      "outputs": [
        {
          "internalType": "uint256",
          "name": "",
          "type": "uint256"
        }
      ],
      "stateMutability": "view",
      "type": "function"
    },
    {
      "inputs": [],
      "name": "owner",
      "outputs": [
        {
          "internalType": "address payable",
          "name": "",
          "type": "address"
        }
      ],
      "stateMutability": "view",
      "type": "function"
    }
  ],
  "bytecode": "0x60806040526702c68af0bb14000060045534801561001c57600080fd5b50600160008190555033600360006101000a81548173ffffffffffffffffffffffffffffffffffffffff021916908373ffffffffffffffffffffffffffffffffffffffff16021790555061186e806100756000396000f3fe60806040526004361061007b5760003560e01c80638da5cb5b1161004e5780638da5cb5b1461011d578063c23b139e14610148578063c78f19f914610164578063f064c32e1461018f5761007b565b80630f08efe01461008057806312e85585146100ab578063202e3740146100d657806358eb2df514610101575b600080fd5b34801561008c57600080fd5b506100956101ba565b6040516100a291906113a2565b60405180910390f35b3480156100b757600080fd5b506100c0610493565b6040516100cd91906113d3565b60405180910390f35b3480156100e257600080fd5b506100eb61049d565b6040516100f891906113a2565b60405180910390f35b61011b6004803603810190610116919061144b565b6107dd565b005b34801561012957600080fd5b50610132610afb565b60405161013f91906114ad565b60405180910390f35b610162600480360381019061015d91906114c8565b610b21565b005b34801561017057600080fd5b50610179610d94565b60405161018691906113d3565b60405180910390f35b34801561019b57600080fd5b506101a4610d9a565b6040516101b191906113a2565b60405180910390f35b606060006101c860016110da565b905060006101d660026110da565b6101e060016110da565b6101ea9190611537565b90506000808267ffffffffffffffff8111156102095761020861156b565b5b60405190808252806020026020018201604052801561024257816020015b61022f61114e565b8152602001906001900390816102275790505b50905060005b8481101561048857600073ffffffffffffffffffffffffffffffffffffffff1660056000600184610279919061159a565b815260200190815260200160002060040160009054906101000a900473ffffffffffffffffffffffffffffffffffffffff1673ffffffffffffffffffffffffffffffffffffffff160361047b576000600560006001846102d9919061159a565b81526020019081526020016000206000015490506000600560008381526020019081526020016000209050806040518060e0016040529081600082015481526020016001820160009054906101000a900473ffffffffffffffffffffffffffffffffffffffff1673ffffffffffffffffffffffffffffffffffffffff1673ffffffffffffffffffffffffffffffffffffffff168152602001600282015481526020016003820160009054906101000a900473ffffffffffffffffffffffffffffffffffffffff1673ffffffffffffffffffffffffffffffffffffffff1673ffffffffffffffffffffffffffffffffffffffff1681526020016004820160009054906101000a900473ffffffffffffffffffffffffffffffffffffffff1673ffffffffffffffffffffffffffffffffffffffff1673ffffffffffffffffffffffffffffffffffffffff168152602001600582015481526020016006820160009054906101000a900460ff16151515158152505084868151811061045e5761045d6115ce565b5b6020026020010181905250600185610476919061159a565b945050505b8080600101915050610248565b508094505050505090565b6000600454905090565b606060006104ab60016110da565b905060008060005b8381101561054d573373ffffffffffffffffffffffffffffffffffffffff16600560006001846104e3919061159a565b815260200190815260200160002060040160009054906101000a900473ffffffffffffffffffffffffffffffffffffffff1673ffffffffffffffffffffffffffffffffffffffff16036105405760018361053d919061159a565b92505b80806001019150506104b3565b5060008267ffffffffffffffff81111561056a5761056961156b565b5b6040519080825280602002602001820160405280156105a357816020015b61059061114e565b8152602001906001900390816105885790505b50905060005b848110156107d2573373ffffffffffffffffffffffffffffffffffffffff16600560006001846105d9919061159a565b815260200190815260200160002060040160009054906101000a900473ffffffffffffffffffffffffffffffffffffffff1673ffffffffffffffffffffffffffffffffffffffff16036107c5576000600182610635919061159a565b90506000600560008381526020019081526020016000209050806040518060e0016040529081600082015481526020016001820160009054906101000a900473ffffffffffffffffffffffffffffffffffffffff1673ffffffffffffffffffffffffffffffffffffffff1673ffffffffffffffffffffffffffffffffffffffff168152602001600282015481526020016003820160009054906101000a900473ffffffffffffffffffffffffffffffffffffffff1673ffffffffffffffffffffffffffffffffffffffff1673ffffffffffffffffffffffffffffffffffffffff1681526020016004820160009054906101000a900473ffffffffffffffffffffffffffffffffffffffff1673ffffffffffffffffffffffffffffffffffffffff1673ffffffffffffffffffffffffffffffffffffffff168152602001600582015481526020016006820160009054906101000a900460ff1615151515815250508486815181106107a8576107a76115ce565b5b60200260200101819052506001856107c0919061159a565b945050505b80806001019150506105a9565b508094505050505090565b6107e56110e8565b60008111610828576040517f08c379a000000000000000000000000000000000000000000000000000000000815260040161081f9061165a565b60405180910390fd5b600454341461086c576040517f08c379a0000000000000000000000000000000000000000000000000000000008152600401610863906116ec565b60405180910390fd5b610876600161112e565b600061088260016110da565b90506040518060e001604052808281526020018573ffffffffffffffffffffffffffffffffffffffff1681526020018481526020013373ffffffffffffffffffffffffffffffffffffffff168152602001600073ffffffffffffffffffffffffffffffffffffffff16815260200183815260200160001515815250600560008381526020019081526020016000206000820151816000015560208201518160010160006101000a81548173ffffffffffffffffffffffffffffffffffffffff021916908373ffffffffffffffffffffffffffffffffffffffff1602179055506040820151816002015560608201518160030160006101000a81548173ffffffffffffffffffffffffffffffffffffffff021916908373ffffffffffffffffffffffffffffffffffffffff16021790555060808201518160040160006101000a81548173ffffffffffffffffffffffffffffffffffffffff021916908373ffffffffffffffffffffffffffffffffffffffff16021790555060a0820151816005015560c08201518160060160006101000a81548160ff0219169083151502179055509050508373ffffffffffffffffffffffffffffffffffffffff166323b872dd3330866040518463ffffffff1660e01b8152600401610a639392919061171b565b600060405180830381600087803b158015610a7d57600080fd5b505af1158015610a91573d6000803e3d6000fd5b50505050828473ffffffffffffffffffffffffffffffffffffffff16827f045dfa01dcba2b36aba1d3dc4a874f4b0c5d2fbeb8d2c4b34a7d88c8d8f929d1336000876000604051610ae59493929190611761565b60405180910390a450610af6611144565b505050565b600360009054906101000a900473ffffffffffffffffffffffffffffffffffffffff1681565b610b296110e8565b600060056000838152602001908152602001600020600501549050600060056000848152602001908152602001600020600201549050813414610ba1576040517f08c379a0000000000000000000000000000000000000000000000000000000008152600401610b9890611818565b60405180910390fd5b6005600084815260200190815260200160002060030160009054906101000a900473ffffffffffffffffffffffffffffffffffffffff1673ffffffffffffffffffffffffffffffffffffffff166108fc349081150290604051600060405180830381858888f19350505050158015610c1d573d6000803e3d6000fd5b508373ffffffffffffffffffffffffffffffffffffffff166323b872dd3033846040518463ffffffff1660e01b8152600401610c5b9392919061171b565b600060405180830381600087803b158015610c7557600080fd5b505af1158015610c89573d6000803e3d6000fd5b50505050336005600085815260200190815260200160002060040160006101000a81548173ffffffffffffffffffffffffffffffffffffffff021916908373ffffffffffffffffffffffffffffffffffffffff16021790555060016005600085815260200190815260200160002060060160006101000a81548160ff021916908315150217905550610d1b600261112e565b600360009054906101000a900473ffffffffffffffffffffffffffffffffffffffff1673ffffffffffffffffffffffffffffffffffffffff166108fc6004549081150290604051600060405180830381858888f19350505050158015610d85573d6000803e3d6000fd5b505050610d90611144565b5050565b60045481565b60606000610da860016110da565b905060008060005b83811015610e4a573373ffffffffffffffffffffffffffffffffffffffff1660056000600184610de0919061159a565b815260200190815260200160002060030160009054906101000a900473ffffffffffffffffffffffffffffffffffffffff1673ffffffffffffffffffffffffffffffffffffffff1603610e3d57600183610e3a919061159a565b92505b8080600101915050610db0565b5060008267ffffffffffffffff811115610e6757610e6661156b565b5b604051908082528060200260200182016040528015610ea057816020015b610e8d61114e565b815260200190600190039081610e855790505b50905060005b848110156110cf573373ffffffffffffffffffffffffffffffffffffffff1660056000600184610ed6919061159a565b815260200190815260200160002060030160009054906101000a900473ffffffffffffffffffffffffffffffffffffffff1673ffffffffffffffffffffffffffffffffffffffff16036110c2576000600182610f32919061159a565b90506000600560008381526020019081526020016000209050806040518060e0016040529081600082015481526020016001820160009054906101000a900473ffffffffffffffffffffffffffffffffffffffff1673ffffffffffffffffffffffffffffffffffffffff1673ffffffffffffffffffffffffffffffffffffffff168152602001600282015481526020016003820160009054906101000a900473ffffffffffffffffffffffffffffffffffffffff1673ffffffffffffffffffffffffffffffffffffffff1673ffffffffffffffffffffffffffffffffffffffff1681526020016004820160009054906101000a900473ffffffffffffffffffffffffffffffffffffffff1673ffffffffffffffffffffffffffffffffffffffff1673ffffffffffffffffffffffffffffffffffffffff168152602001600582015481526020016006820160009054906101000a900460ff1615151515815250508486815181106110a5576110a46115ce565b5b60200260200101819052506001856110bd919061159a565b945050505b8080600101915050610ea6565b508094505050505090565b600081600001549050919050565b600260005403611124576040517f3ee5aeb500000000000000000000000000000000000000000000000000000000815260040160405180910390fd5b6002600081905550565b6001816000016000828254019250508190555050565b6001600081905550565b6040518060e0016040528060008152602001600073ffffffffffffffffffffffffffffffffffffffff16815260200160008152602001600073ffffffffffffffffffffffffffffffffffffffff168152602001600073ffffffffffffffffffffffffffffffffffffffff168152602001600081526020016000151581525090565b600081519050919050565b600082825260208201905092915050565b6000819050602082019050919050565b6000819050919050565b61120e816111fb565b82525050565b600073ffffffffffffffffffffffffffffffffffffffff82169050919050565b600061123f82611214565b9050919050565b61124f81611234565b82525050565b600061126082611214565b9050919050565b61127081611255565b82525050565b60008115159050919050565b61128b81611276565b82525050565b60e0820160008201516112a76000850182611205565b5060208201516112ba6020850182611246565b5060408201516112cd6040850182611205565b5060608201516112e06060850182611267565b5060808201516112f36080850182611267565b5060a082015161130660a0850182611205565b5060c082015161131960c0850182611282565b50505050565b600061132b8383611291565b60e08301905092915050565b6000602082019050919050565b600061134f826111cf565b61135981856111da565b9350611364836111eb565b8060005b8381101561139557815161137c888261131f565b975061138783611337565b925050600181019050611368565b5085935050505092915050565b600060208201905081810360008301526113bc8184611344565b905092915050565b6113cd816111fb565b82525050565b60006020820190506113e860008301846113c4565b92915050565b600080fd5b6113fc81611234565b811461140757600080fd5b50565b600081359050611419816113f3565b92915050565b611428816111fb565b811461143357600080fd5b50565b6000813590506114458161141f565b92915050565b600080600060608486031215611464576114636113ee565b5b60006114728682870161140a565b935050602061148386828701611436565b925050604061149486828701611436565b9150509250925092565b6114a781611255565b82525050565b60006020820190506114c2600083018461149e565b92915050565b600080604083850312156114df576114de6113ee565b5b60006114ed8582860161140a565b92505060206114fe85828601611436565b9150509250929050565b7f4e487b7100000000000000000000000000000000000000000000000000000000600052601160045260246000fd5b6000611542826111fb565b915061154d836111fb565b925082820390508181111561156557611564611508565b5b92915050565b7f4e487b7100000000000000000000000000000000000000000000000000000000600052604160045260246000fd5b60006115a5826111fb565b91506115b0836111fb565b92508282019050808211156115c8576115c7611508565b5b92915050565b7f4e487b7100000000000000000000000000000000000000000000000000000000600052603260045260246000fd5b600082825260208201905092915050565b7f5072696365206d757374206265206174206c6561737420312077656900000000600082015250565b6000611644601c836115fd565b915061164f8261160e565b602082019050919050565b6000602082019050818103600083015261167381611637565b9050919050565b7f5072696365206d75737420626520657175616c20746f206c697374696e67207060008201527f7269636500000000000000000000000000000000000000000000000000000000602082015250565b60006116d66024836115fd565b91506116e18261167a565b604082019050919050565b60006020820190508181036000830152611705816116c9565b9050919050565b61171581611234565b82525050565b6000606082019050611730600083018661170c565b61173d602083018561170c565b61174a60408301846113c4565b949350505050565b61175b81611276565b82525050565b6000608082019050611776600083018761170c565b611783602083018661170c565b61179060408301856113c4565b61179d6060830184611752565b95945050505050565b7f506c65617365207375626d6974207468652061736b696e67207072696365207460008201527f6f20636f6d706c65746520746865207075726368617365000000000000000000602082015250565b60006118026037836115fd565b915061180d826117a6565b604082019050919050565b60006020820190508181036000830152611831816117f5565b905091905056fea2646970667358221220cd16d6de206b442ee22f01917e1a4526af2e97e16f9f9cabe33923c97e1f9d9664736f6c63430008180033",
  "linkReferences": {},
  "deployedLinkReferences": {}
}