{
  "_format": "hh-sol-artifact-1",
  "contractName": "MarketPlace",
  "sourceName": "contracts/MarketPlace.sol",
  "abi": [
    {
      "inputs": [],
      "stateMutability": "nonpayable",
      "type": "constructor"
    },
    {
      "inputs": [],
      "name": "ReentrancyGuardReentrantCall",
      "type": "error"
    },
    {
      "anonymous": false,
      "inputs": [
        {
          "indexed": true,
          "internalType": "uint256",
          "name": "itemId",
          "type": "uint256"
        },
        {
          "indexed": true,
          "internalType": "address",
          "name": "nftContract",
          "type": "address"
        },
        {
          "indexed": true,
          "internalType": "uint256",
          "name": "tokenId",
          "type": "uint256"
        },
        {
          "indexed": false,
          "internalType": "address",
          "name": "seller",
          "type": "address"
        },
        {
          "indexed": false,
          "internalType": "address",
          "name": "owner",
          "type": "address"
        },
        {
          "indexed": false,
          "internalType": "uint256",
          "name": "price",
          "type": "uint256"
        },
        {
          "indexed": false,
          "internalType": "bool",
          "name": "sold",
          "type": "bool"
        }
      ],
      "name": "MarketItemCreated",
      "type": "event"
    },
    {
      "inputs": [
        {
          "internalType": "address",
          "name": "nftContract",
          "type": "address"
        },
        {
          "internalType": "uint256",
          "name": "tokenId",
          "type": "uint256"
        },
        {
          "internalType": "uint256",
          "name": "price",
          "type": "uint256"
        }
      ],
      "name": "createMarketItem",
      "outputs": [],
      "stateMutability": "payable",
      "type": "function"
    },
    {
      "inputs": [
        {
          "internalType": "address",
          "name": "nftContract",
          "type": "address"
        },
        {
          "internalType": "uint256",
          "name": "itemId",
          "type": "uint256"
        }
      ],
      "name": "createMarketSale",
      "outputs": [],
      "stateMutability": "payable",
      "type": "function"
    },
    {
      "inputs": [],
      "name": "fetchAllItems",
      "outputs": [
        {
          "components": [
            {
              "internalType": "uint256",
              "name": "itemId",
              "type": "uint256"
            },
            {
              "internalType": "address",
              "name": "nftContract",
              "type": "address"
            },
            {
              "internalType": "uint256",
              "name": "tokenId",
              "type": "uint256"
            },
            {
              "internalType": "address payable",
              "name": "seller",
              "type": "address"
            },
            {
              "internalType": "address payable",
              "name": "owner",
              "type": "address"
            },
            {
              "internalType": "uint256",
              "name": "price",
              "type": "uint256"
            },
            {
              "internalType": "bool",
              "name": "sold",
              "type": "bool"
            }
          ],
          "internalType": "struct MarketPlace.MarketItem[]",
          "name": "",
          "type": "tuple[]"
        }
      ],
      "stateMutability": "view",
      "type": "function"
    },
    {
      "inputs": [],
      "name": "fetchItemsCreated",
      "outputs": [
        {
          "components": [
            {
              "internalType": "uint256",
              "name": "itemId",
              "type": "uint256"
            },
            {
              "internalType": "address",
              "name": "nftContract",
              "type": "address"
            },
            {
              "internalType": "uint256",
              "name": "tokenId",
              "type": "uint256"
            },
            {
              "internalType": "address payable",
              "name": "seller",
              "type": "address"
            },
            {
              "internalType": "address payable",
              "name": "owner",
              "type": "address"
            },
            {
              "internalType": "uint256",
              "name": "price",
              "type": "uint256"
            },
            {
              "internalType": "bool",
              "name": "sold",
              "type": "bool"
            }
          ],
          "internalType": "struct MarketPlace.MarketItem[]",
          "name": "",
          "type": "tuple[]"
        }
      ],
      "stateMutability": "view",
      "type": "function"
    },
    {
      "inputs": [],
      "name": "fetchMarketItems",
      "outputs": [
        {
          "components": [
            {
              "internalType": "uint256",
              "name": "itemId",
              "type": "uint256"
            },
            {
              "internalType": "address",
              "name": "nftContract",
              "type": "address"
            },
            {
              "internalType": "uint256",
              "name": "tokenId",
              "type": "uint256"
            },
            {
              "internalType": "address payable",
              "name": "seller",
              "type": "address"
            },
            {
              "internalType": "address payable",
              "name": "owner",
              "type": "address"
            },
            {
              "internalType": "uint256",
              "name": "price",
              "type": "uint256"
            },
            {
              "internalType": "bool",
              "name": "sold",
              "type": "bool"
            }
          ],
          "internalType": "struct MarketPlace.MarketItem[]",
          "name": "",
          "type": "tuple[]"
        }
      ],
      "stateMutability": "view",
      "type": "function"
    },
    {
      "inputs": [],
      "name": "fetchMyNFTs",
      "outputs": [
        {
          "components": [
            {
              "internalType": "uint256",
              "name": "itemId",
              "type": "uint256"
            },
            {
              "internalType": "address",
              "name": "nftContract",
              "type": "address"
            },
            {
              "internalType": "uint256",
              "name": "tokenId",
              "type": "uint256"
            },
            {
              "internalType": "address payable",
              "name": "seller",
              "type": "address"
            },
            {
              "internalType": "address payable",
              "name": "owner",
              "type": "address"
            },
            {
              "internalType": "uint256",
              "name": "price",
              "type": "uint256"
            },
            {
              "internalType": "bool",
              "name": "sold",
              "type": "bool"
            }
          ],
          "internalType": "struct MarketPlace.MarketItem[]",
          "name": "",
          "type": "tuple[]"
        }
      ],
      "stateMutability": "view",
      "type": "function"
    },
    {
      "inputs": [],
      "name": "getListingPrice",
      "outputs": [
        {
          "internalType": "uint256",
          "name": "",
          "type": "uint256"
        }
      ],
      "stateMutability": "view",
      "type": "function"
    },
    {
      "inputs": [],
      "name": "listingPrice",
      "outputs": [
        {
          "internalType": "uint256",
          "name": "",
          "type": "uint256"
        }
      ],
      "stateMutability": "view",
      "type": "function"
    },
    {
      "inputs": [],
      "name": "owner",
      "outputs": [
        {
          "internalType": "address payable",
          "name": "",
          "type": "address"
        }
      ],
      "stateMutability": "view",
      "type": "function"
    }
  ],
  "bytecode": "0x60806040526702c68af0bb14000060045534801561001c57600080fd5b50600160008190555033600360006101000a81548173ffffffffffffffffffffffffffffffffffffffff021916908373ffffffffffffffffffffffffffffffffffffffff160217905550611ae3806100756000396000f3fe6080604052600436106100865760003560e01c80638da5cb5b116100595780638da5cb5b1461012857806397598cc314610153578063c23b139e1461017e578063c78f19f91461019a578063f064c32e146101c557610086565b80630f08efe01461008b57806312e85585146100b6578063202e3740146100e157806358eb2df51461010c575b600080fd5b34801561009757600080fd5b506100a06101f0565b6040516100ad9190611617565b60405180910390f35b3480156100c257600080fd5b506100cb6104c9565b6040516100d89190611648565b60405180910390f35b3480156100ed57600080fd5b506100f66104d3565b6040516101039190611617565b60405180910390f35b610126600480360381019061012191906116c0565b610813565b005b34801561013457600080fd5b5061013d610b31565b60405161014a9190611722565b60405180910390f35b34801561015f57600080fd5b50610168610b57565b6040516101759190611617565b60405180910390f35b6101986004803603810190610193919061173d565b610d96565b005b3480156101a657600080fd5b506101af611009565b6040516101bc9190611648565b60405180910390f35b3480156101d157600080fd5b506101da61100f565b6040516101e79190611617565b60405180910390f35b606060006101fe600161134f565b9050600061020c600261134f565b610216600161134f565b61022091906117ac565b90506000808267ffffffffffffffff81111561023f5761023e6117e0565b5b60405190808252806020026020018201604052801561027857816020015b6102656113c3565b81526020019060019003908161025d5790505b50905060005b848110156104be57600073ffffffffffffffffffffffffffffffffffffffff16600560006001846102af919061180f565b815260200190815260200160002060040160009054906101000a900473ffffffffffffffffffffffffffffffffffffffff1673ffffffffffffffffffffffffffffffffffffffff16036104b15760006005600060018461030f919061180f565b81526020019081526020016000206000015490506000600560008381526020019081526020016000209050806040518060e0016040529081600082015481526020016001820160009054906101000a900473ffffffffffffffffffffffffffffffffffffffff1673ffffffffffffffffffffffffffffffffffffffff1673ffffffffffffffffffffffffffffffffffffffff168152602001600282015481526020016003820160009054906101000a900473ffffffffffffffffffffffffffffffffffffffff1673ffffffffffffffffffffffffffffffffffffffff1673ffffffffffffffffffffffffffffffffffffffff1681526020016004820160009054906101000a900473ffffffffffffffffffffffffffffffffffffffff1673ffffffffffffffffffffffffffffffffffffffff1673ffffffffffffffffffffffffffffffffffffffff168152602001600582015481526020016006820160009054906101000a900460ff16151515158152505084868151811061049457610493611843565b5b60200260200101819052506001856104ac919061180f565b945050505b808060010191505061027e565b508094505050505090565b6000600454905090565b606060006104e1600161134f565b905060008060005b83811015610583573373ffffffffffffffffffffffffffffffffffffffff1660056000600184610519919061180f565b815260200190815260200160002060040160009054906101000a900473ffffffffffffffffffffffffffffffffffffffff1673ffffffffffffffffffffffffffffffffffffffff160361057657600183610573919061180f565b92505b80806001019150506104e9565b5060008267ffffffffffffffff8111156105a05761059f6117e0565b5b6040519080825280602002602001820160405280156105d957816020015b6105c66113c3565b8152602001906001900390816105be5790505b50905060005b84811015610808573373ffffffffffffffffffffffffffffffffffffffff166005600060018461060f919061180f565b815260200190815260200160002060040160009054906101000a900473ffffffffffffffffffffffffffffffffffffffff1673ffffffffffffffffffffffffffffffffffffffff16036107fb57600060018261066b919061180f565b90506000600560008381526020019081526020016000209050806040518060e0016040529081600082015481526020016001820160009054906101000a900473ffffffffffffffffffffffffffffffffffffffff1673ffffffffffffffffffffffffffffffffffffffff1673ffffffffffffffffffffffffffffffffffffffff168152602001600282015481526020016003820160009054906101000a900473ffffffffffffffffffffffffffffffffffffffff1673ffffffffffffffffffffffffffffffffffffffff1673ffffffffffffffffffffffffffffffffffffffff1681526020016004820160009054906101000a900473ffffffffffffffffffffffffffffffffffffffff1673ffffffffffffffffffffffffffffffffffffffff1673ffffffffffffffffffffffffffffffffffffffff168152602001600582015481526020016006820160009054906101000a900460ff1615151515815250508486815181106107de576107dd611843565b5b60200260200101819052506001856107f6919061180f565b945050505b80806001019150506105df565b508094505050505090565b61081b61135d565b6000811161085e576040517f08c379a0000000000000000000000000000000000000000000000000000000008152600401610855906118cf565b60405180910390fd5b60045434146108a2576040517f08c379a000000000000000000000000000000000000000000000000000000000815260040161089990611961565b60405180910390fd5b6108ac60016113a3565b60006108b8600161134f565b90506040518060e001604052808281526020018573ffffffffffffffffffffffffffffffffffffffff1681526020018481526020013373ffffffffffffffffffffffffffffffffffffffff168152602001600073ffffffffffffffffffffffffffffffffffffffff16815260200183815260200160001515815250600560008381526020019081526020016000206000820151816000015560208201518160010160006101000a81548173ffffffffffffffffffffffffffffffffffffffff021916908373ffffffffffffffffffffffffffffffffffffffff1602179055506040820151816002015560608201518160030160006101000a81548173ffffffffffffffffffffffffffffffffffffffff021916908373ffffffffffffffffffffffffffffffffffffffff16021790555060808201518160040160006101000a81548173ffffffffffffffffffffffffffffffffffffffff021916908373ffffffffffffffffffffffffffffffffffffffff16021790555060a0820151816005015560c08201518160060160006101000a81548160ff0219169083151502179055509050508373ffffffffffffffffffffffffffffffffffffffff166323b872dd3330866040518463ffffffff1660e01b8152600401610a9993929190611990565b600060405180830381600087803b158015610ab357600080fd5b505af1158015610ac7573d6000803e3d6000fd5b50505050828473ffffffffffffffffffffffffffffffffffffffff16827f045dfa01dcba2b36aba1d3dc4a874f4b0c5d2fbeb8d2c4b34a7d88c8d8f929d1336000876000604051610b1b94939291906119d6565b60405180910390a450610b2c6113b9565b505050565b600360009054906101000a900473ffffffffffffffffffffffffffffffffffffffff1681565b60606000610b65600161134f565b905060008167ffffffffffffffff811115610b8357610b826117e0565b5b604051908082528060200260200182016040528015610bbc57816020015b610ba96113c3565b815260200190600190039081610ba15790505b5090506000805b83811015610d8c57600060056000600184610bde919061180f565b81526020019081526020016000206000015490506000600560008381526020019081526020016000209050806040518060e0016040529081600082015481526020016001820160009054906101000a900473ffffffffffffffffffffffffffffffffffffffff1673ffffffffffffffffffffffffffffffffffffffff1673ffffffffffffffffffffffffffffffffffffffff168152602001600282015481526020016003820160009054906101000a900473ffffffffffffffffffffffffffffffffffffffff1673ffffffffffffffffffffffffffffffffffffffff1673ffffffffffffffffffffffffffffffffffffffff1681526020016004820160009054906101000a900473ffffffffffffffffffffffffffffffffffffffff1673ffffffffffffffffffffffffffffffffffffffff1673ffffffffffffffffffffffffffffffffffffffff168152602001600582015481526020016006820160009054906101000a900460ff161515151581525050858581518110610d6357610d62611843565b5b6020026020010181905250600184610d7b919061180f565b935050508080600101915050610bc3565b5081935050505090565b610d9e61135d565b600060056000838152602001908152602001600020600501549050600060056000848152602001908152602001600020600201549050813414610e16576040517f08c379a0000000000000000000000000000000000000000000000000000000008152600401610e0d90611a8d565b60405180910390fd5b6005600084815260200190815260200160002060030160009054906101000a900473ffffffffffffffffffffffffffffffffffffffff1673ffffffffffffffffffffffffffffffffffffffff166108fc349081150290604051600060405180830381858888f19350505050158015610e92573d6000803e3d6000fd5b508373ffffffffffffffffffffffffffffffffffffffff166323b872dd3033846040518463ffffffff1660e01b8152600401610ed093929190611990565b600060405180830381600087803b158015610eea57600080fd5b505af1158015610efe573d6000803e3d6000fd5b50505050336005600085815260200190815260200160002060040160006101000a81548173ffffffffffffffffffffffffffffffffffffffff021916908373ffffffffffffffffffffffffffffffffffffffff16021790555060016005600085815260200190815260200160002060060160006101000a81548160ff021916908315150217905550610f9060026113a3565b600360009054906101000a900473ffffffffffffffffffffffffffffffffffffffff1673ffffffffffffffffffffffffffffffffffffffff166108fc6004549081150290604051600060405180830381858888f19350505050158015610ffa573d6000803e3d6000fd5b5050506110056113b9565b5050565b60045481565b6060600061101d600161134f565b905060008060005b838110156110bf573373ffffffffffffffffffffffffffffffffffffffff1660056000600184611055919061180f565b815260200190815260200160002060030160009054906101000a900473ffffffffffffffffffffffffffffffffffffffff1673ffffffffffffffffffffffffffffffffffffffff16036110b2576001836110af919061180f565b92505b8080600101915050611025565b5060008267ffffffffffffffff8111156110dc576110db6117e0565b5b60405190808252806020026020018201604052801561111557816020015b6111026113c3565b8152602001906001900390816110fa5790505b50905060005b84811015611344573373ffffffffffffffffffffffffffffffffffffffff166005600060018461114b919061180f565b815260200190815260200160002060030160009054906101000a900473ffffffffffffffffffffffffffffffffffffffff1673ffffffffffffffffffffffffffffffffffffffff16036113375760006001826111a7919061180f565b90506000600560008381526020019081526020016000209050806040518060e0016040529081600082015481526020016001820160009054906101000a900473ffffffffffffffffffffffffffffffffffffffff1673ffffffffffffffffffffffffffffffffffffffff1673ffffffffffffffffffffffffffffffffffffffff168152602001600282015481526020016003820160009054906101000a900473ffffffffffffffffffffffffffffffffffffffff1673ffffffffffffffffffffffffffffffffffffffff1673ffffffffffffffffffffffffffffffffffffffff1681526020016004820160009054906101000a900473ffffffffffffffffffffffffffffffffffffffff1673ffffffffffffffffffffffffffffffffffffffff1673ffffffffffffffffffffffffffffffffffffffff168152602001600582015481526020016006820160009054906101000a900460ff16151515158152505084868151811061131a57611319611843565b5b6020026020010181905250600185611332919061180f565b945050505b808060010191505061111b565b508094505050505090565b600081600001549050919050565b600260005403611399576040517f3ee5aeb500000000000000000000000000000000000000000000000000000000815260040160405180910390fd5b6002600081905550565b6001816000016000828254019250508190555050565b6001600081905550565b6040518060e0016040528060008152602001600073ffffffffffffffffffffffffffffffffffffffff16815260200160008152602001600073ffffffffffffffffffffffffffffffffffffffff168152602001600073ffffffffffffffffffffffffffffffffffffffff168152602001600081526020016000151581525090565b600081519050919050565b600082825260208201905092915050565b6000819050602082019050919050565b6000819050919050565b61148381611470565b82525050565b600073ffffffffffffffffffffffffffffffffffffffff82169050919050565b60006114b482611489565b9050919050565b6114c4816114a9565b82525050565b60006114d582611489565b9050919050565b6114e5816114ca565b82525050565b60008115159050919050565b611500816114eb565b82525050565b60e08201600082015161151c600085018261147a565b50602082015161152f60208501826114bb565b506040820151611542604085018261147a565b50606082015161155560608501826114dc565b50608082015161156860808501826114dc565b5060a082015161157b60a085018261147a565b5060c082015161158e60c08501826114f7565b50505050565b60006115a08383611506565b60e08301905092915050565b6000602082019050919050565b60006115c482611444565b6115ce818561144f565b93506115d983611460565b8060005b8381101561160a5781516115f18882611594565b97506115fc836115ac565b9250506001810190506115dd565b5085935050505092915050565b6000602082019050818103600083015261163181846115b9565b905092915050565b61164281611470565b82525050565b600060208201905061165d6000830184611639565b92915050565b600080fd5b611671816114a9565b811461167c57600080fd5b50565b60008135905061168e81611668565b92915050565b61169d81611470565b81146116a857600080fd5b50565b6000813590506116ba81611694565b92915050565b6000806000606084860312156116d9576116d8611663565b5b60006116e78682870161167f565b93505060206116f8868287016116ab565b9250506040611709868287016116ab565b9150509250925092565b61171c816114ca565b82525050565b60006020820190506117376000830184611713565b92915050565b6000806040838503121561175457611753611663565b5b60006117628582860161167f565b9250506020611773858286016116ab565b9150509250929050565b7f4e487b7100000000000000000000000000000000000000000000000000000000600052601160045260246000fd5b60006117b782611470565b91506117c283611470565b92508282039050818111156117da576117d961177d565b5b92915050565b7f4e487b7100000000000000000000000000000000000000000000000000000000600052604160045260246000fd5b600061181a82611470565b915061182583611470565b925082820190508082111561183d5761183c61177d565b5b92915050565b7f4e487b7100000000000000000000000000000000000000000000000000000000600052603260045260246000fd5b600082825260208201905092915050565b7f5072696365206d757374206265206174206c6561737420312077656900000000600082015250565b60006118b9601c83611872565b91506118c482611883565b602082019050919050565b600060208201905081810360008301526118e8816118ac565b9050919050565b7f5072696365206d75737420626520657175616c20746f206c697374696e67207060008201527f7269636500000000000000000000000000000000000000000000000000000000602082015250565b600061194b602483611872565b9150611956826118ef565b604082019050919050565b6000602082019050818103600083015261197a8161193e565b9050919050565b61198a816114a9565b82525050565b60006060820190506119a56000830186611981565b6119b26020830185611981565b6119bf6040830184611639565b949350505050565b6119d0816114eb565b82525050565b60006080820190506119eb6000830187611981565b6119f86020830186611981565b611a056040830185611639565b611a1260608301846119c7565b95945050505050565b7f506c65617365207375626d6974207468652061736b696e67207072696365207460008201527f6f20636f6d706c65746520746865207075726368617365000000000000000000602082015250565b6000611a77603783611872565b9150611a8282611a1b565b604082019050919050565b60006020820190508181036000830152611aa681611a6a565b905091905056fea2646970667358221220f127662c501a414e3ae43031d7f873d2096c93044fd4a403972957f0acf100a364736f6c63430008180033",
  "linkReferences": {},
  "deployedLinkReferences": {}
}