{
  "_format": "hh-sol-artifact-1",
  "contractName": "MarketPlace",
  "sourceName": "contracts/MarketPlace.sol",
  "abi": [
    {
      "inputs": [],
      "stateMutability": "nonpayable",
      "type": "constructor"
    },
    {
      "inputs": [],
      "name": "ReentrancyGuardReentrantCall",
      "type": "error"
    },
    {
      "anonymous": false,
      "inputs": [
        {
          "indexed": false,
          "internalType": "uint256",
          "name": "oldPrice",
          "type": "uint256"
        },
        {
          "indexed": false,
          "internalType": "uint256",
          "name": "newPrice",
          "type": "uint256"
        }
      ],
      "name": "ListingPriceUpdated",
      "type": "event"
    },
    {
      "anonymous": false,
      "inputs": [
        {
          "indexed": true,
          "internalType": "uint256",
          "name": "itemId",
          "type": "uint256"
        },
        {
          "indexed": true,
          "internalType": "address",
          "name": "nftContract",
          "type": "address"
        },
        {
          "indexed": true,
          "internalType": "uint256",
          "name": "tokenId",
          "type": "uint256"
        },
        {
          "indexed": false,
          "internalType": "address",
          "name": "seller",
          "type": "address"
        },
        {
          "indexed": false,
          "internalType": "address",
          "name": "owner",
          "type": "address"
        },
        {
          "indexed": false,
          "internalType": "uint256",
          "name": "price",
          "type": "uint256"
        },
        {
          "indexed": false,
          "internalType": "bool",
          "name": "sold",
          "type": "bool"
        }
      ],
      "name": "MarketItemCreated",
      "type": "event"
    },
    {
      "anonymous": false,
      "inputs": [
        {
          "indexed": false,
          "internalType": "uint256",
          "name": "msgValue",
          "type": "uint256"
        },
        {
          "indexed": false,
          "internalType": "uint256",
          "name": "price",
          "type": "uint256"
        },
        {
          "indexed": false,
          "internalType": "string",
          "name": "message",
          "type": "string"
        }
      ],
      "name": "SaleDebug",
      "type": "event"
    },
    {
      "inputs": [
        {
          "internalType": "address",
          "name": "nftContract",
          "type": "address"
        },
        {
          "internalType": "uint256",
          "name": "tokenId",
          "type": "uint256"
        },
        {
          "internalType": "uint256",
          "name": "price",
          "type": "uint256"
        }
      ],
      "name": "createMarketItem",
      "outputs": [],
      "stateMutability": "payable",
      "type": "function"
    },
    {
      "inputs": [
        {
          "internalType": "address",
          "name": "nftContract",
          "type": "address"
        },
        {
          "internalType": "uint256",
          "name": "itemId",
          "type": "uint256"
        }
      ],
      "name": "createMarketSale",
      "outputs": [],
      "stateMutability": "payable",
      "type": "function"
    },
    {
      "inputs": [],
      "name": "fetchAllItems",
      "outputs": [
        {
          "components": [
            {
              "internalType": "uint256",
              "name": "itemId",
              "type": "uint256"
            },
            {
              "internalType": "address",
              "name": "nftContract",
              "type": "address"
            },
            {
              "internalType": "uint256",
              "name": "tokenId",
              "type": "uint256"
            },
            {
              "internalType": "address payable",
              "name": "seller",
              "type": "address"
            },
            {
              "internalType": "address payable",
              "name": "owner",
              "type": "address"
            },
            {
              "internalType": "uint256",
              "name": "price",
              "type": "uint256"
            },
            {
              "internalType": "bool",
              "name": "sold",
              "type": "bool"
            }
          ],
          "internalType": "struct MarketPlace.MarketItem[]",
          "name": "",
          "type": "tuple[]"
        }
      ],
      "stateMutability": "view",
      "type": "function"
    },
    {
      "inputs": [],
      "name": "fetchItemsCreated",
      "outputs": [
        {
          "components": [
            {
              "internalType": "uint256",
              "name": "itemId",
              "type": "uint256"
            },
            {
              "internalType": "address",
              "name": "nftContract",
              "type": "address"
            },
            {
              "internalType": "uint256",
              "name": "tokenId",
              "type": "uint256"
            },
            {
              "internalType": "address payable",
              "name": "seller",
              "type": "address"
            },
            {
              "internalType": "address payable",
              "name": "owner",
              "type": "address"
            },
            {
              "internalType": "uint256",
              "name": "price",
              "type": "uint256"
            },
            {
              "internalType": "bool",
              "name": "sold",
              "type": "bool"
            }
          ],
          "internalType": "struct MarketPlace.MarketItem[]",
          "name": "",
          "type": "tuple[]"
        }
      ],
      "stateMutability": "view",
      "type": "function"
    },
    {
      "inputs": [],
      "name": "fetchMarketItems",
      "outputs": [
        {
          "components": [
            {
              "internalType": "uint256",
              "name": "itemId",
              "type": "uint256"
            },
            {
              "internalType": "address",
              "name": "nftContract",
              "type": "address"
            },
            {
              "internalType": "uint256",
              "name": "tokenId",
              "type": "uint256"
            },
            {
              "internalType": "address payable",
              "name": "seller",
              "type": "address"
            },
            {
              "internalType": "address payable",
              "name": "owner",
              "type": "address"
            },
            {
              "internalType": "uint256",
              "name": "price",
              "type": "uint256"
            },
            {
              "internalType": "bool",
              "name": "sold",
              "type": "bool"
            }
          ],
          "internalType": "struct MarketPlace.MarketItem[]",
          "name": "",
          "type": "tuple[]"
        }
      ],
      "stateMutability": "view",
      "type": "function"
    },
    {
      "inputs": [],
      "name": "fetchMyNFTs",
      "outputs": [
        {
          "components": [
            {
              "internalType": "uint256",
              "name": "itemId",
              "type": "uint256"
            },
            {
              "internalType": "address",
              "name": "nftContract",
              "type": "address"
            },
            {
              "internalType": "uint256",
              "name": "tokenId",
              "type": "uint256"
            },
            {
              "internalType": "address payable",
              "name": "seller",
              "type": "address"
            },
            {
              "internalType": "address payable",
              "name": "owner",
              "type": "address"
            },
            {
              "internalType": "uint256",
              "name": "price",
              "type": "uint256"
            },
            {
              "internalType": "bool",
              "name": "sold",
              "type": "bool"
            }
          ],
          "internalType": "struct MarketPlace.MarketItem[]",
          "name": "",
          "type": "tuple[]"
        }
      ],
      "stateMutability": "view",
      "type": "function"
    },
    {
      "inputs": [],
      "name": "getListingPrice",
      "outputs": [
        {
          "internalType": "uint256",
          "name": "",
          "type": "uint256"
        }
      ],
      "stateMutability": "view",
      "type": "function"
    },
    {
      "inputs": [],
      "name": "listingPrice",
      "outputs": [
        {
          "internalType": "uint256",
          "name": "",
          "type": "uint256"
        }
      ],
      "stateMutability": "view",
      "type": "function"
    },
    {
      "inputs": [],
      "name": "owner",
      "outputs": [
        {
          "internalType": "address payable",
          "name": "",
          "type": "address"
        }
      ],
      "stateMutability": "view",
      "type": "function"
    },
    {
      "inputs": [
        {
          "internalType": "uint256",
          "name": "newPrice",
          "type": "uint256"
        }
      ],
      "name": "setListingPrice",
      "outputs": [],
      "stateMutability": "nonpayable",
      "type": "function"
    }
  ],
  "bytecode": "0x608060405266071afd498d000060045534801561001b57600080fd5b50600160008190555033600360006101000a81548173ffffffffffffffffffffffffffffffffffffffff021916908373ffffffffffffffffffffffffffffffffffffffff160217905550611d9b806100746000396000f3fe6080604052600436106100915760003560e01c80638da5cb5b116100595780638da5cb5b1461015c57806397598cc314610187578063c23b139e146101b2578063c78f19f9146101ce578063f064c32e146101f957610091565b80630f08efe01461009657806312e85585146100c1578063202e3740146100ec57806358eb2df5146101175780637c726b6914610133575b600080fd5b3480156100a257600080fd5b506100ab610224565b6040516100b8919061175f565b60405180910390f35b3480156100cd57600080fd5b506100d66104fd565b6040516100e39190611790565b60405180910390f35b3480156100f857600080fd5b50610101610507565b60405161010e919061175f565b60405180910390f35b610131600480360381019061012c9190611808565b610847565b005b34801561013f57600080fd5b5061015a6004803603810190610155919061185b565b610b65565b005b34801561016857600080fd5b50610171610c40565b60405161017e9190611897565b60405180910390f35b34801561019357600080fd5b5061019c610c66565b6040516101a9919061175f565b60405180910390f35b6101cc60048036038101906101c791906118b2565b610ea5565b005b3480156101da57600080fd5b506101e3611151565b6040516101f09190611790565b60405180910390f35b34801561020557600080fd5b5061020e611157565b60405161021b919061175f565b60405180910390f35b606060006102326001611497565b905060006102406002611497565b61024a6001611497565b6102549190611921565b90506000808267ffffffffffffffff81111561027357610272611955565b5b6040519080825280602002602001820160405280156102ac57816020015b61029961150b565b8152602001906001900390816102915790505b50905060005b848110156104f257600073ffffffffffffffffffffffffffffffffffffffff16600560006001846102e39190611984565b815260200190815260200160002060040160009054906101000a900473ffffffffffffffffffffffffffffffffffffffff1673ffffffffffffffffffffffffffffffffffffffff16036104e5576000600560006001846103439190611984565b81526020019081526020016000206000015490506000600560008381526020019081526020016000209050806040518060e0016040529081600082015481526020016001820160009054906101000a900473ffffffffffffffffffffffffffffffffffffffff1673ffffffffffffffffffffffffffffffffffffffff1673ffffffffffffffffffffffffffffffffffffffff168152602001600282015481526020016003820160009054906101000a900473ffffffffffffffffffffffffffffffffffffffff1673ffffffffffffffffffffffffffffffffffffffff1673ffffffffffffffffffffffffffffffffffffffff1681526020016004820160009054906101000a900473ffffffffffffffffffffffffffffffffffffffff1673ffffffffffffffffffffffffffffffffffffffff1673ffffffffffffffffffffffffffffffffffffffff168152602001600582015481526020016006820160009054906101000a900460ff1615151515815250508486815181106104c8576104c76119b8565b5b60200260200101819052506001856104e09190611984565b945050505b80806001019150506102b2565b508094505050505090565b6000600454905090565b606060006105156001611497565b905060008060005b838110156105b7573373ffffffffffffffffffffffffffffffffffffffff166005600060018461054d9190611984565b815260200190815260200160002060040160009054906101000a900473ffffffffffffffffffffffffffffffffffffffff1673ffffffffffffffffffffffffffffffffffffffff16036105aa576001836105a79190611984565b92505b808060010191505061051d565b5060008267ffffffffffffffff8111156105d4576105d3611955565b5b60405190808252806020026020018201604052801561060d57816020015b6105fa61150b565b8152602001906001900390816105f25790505b50905060005b8481101561083c573373ffffffffffffffffffffffffffffffffffffffff16600560006001846106439190611984565b815260200190815260200160002060040160009054906101000a900473ffffffffffffffffffffffffffffffffffffffff1673ffffffffffffffffffffffffffffffffffffffff160361082f57600060018261069f9190611984565b90506000600560008381526020019081526020016000209050806040518060e0016040529081600082015481526020016001820160009054906101000a900473ffffffffffffffffffffffffffffffffffffffff1673ffffffffffffffffffffffffffffffffffffffff1673ffffffffffffffffffffffffffffffffffffffff168152602001600282015481526020016003820160009054906101000a900473ffffffffffffffffffffffffffffffffffffffff1673ffffffffffffffffffffffffffffffffffffffff1673ffffffffffffffffffffffffffffffffffffffff1681526020016004820160009054906101000a900473ffffffffffffffffffffffffffffffffffffffff1673ffffffffffffffffffffffffffffffffffffffff1673ffffffffffffffffffffffffffffffffffffffff168152602001600582015481526020016006820160009054906101000a900460ff161515151581525050848681518110610812576108116119b8565b5b602002602001018190525060018561082a9190611984565b945050505b8080600101915050610613565b508094505050505090565b61084f6114a5565b60008111610892576040517f08c379a000000000000000000000000000000000000000000000000000000000815260040161088990611a44565b60405180910390fd5b60045434146108d6576040517f08c379a00000000000000000000000000000000000000000000000000000000081526004016108cd90611ad6565b60405180910390fd5b6108e060016114eb565b60006108ec6001611497565b90506040518060e001604052808281526020018573ffffffffffffffffffffffffffffffffffffffff1681526020018481526020013373ffffffffffffffffffffffffffffffffffffffff168152602001600073ffffffffffffffffffffffffffffffffffffffff16815260200183815260200160001515815250600560008381526020019081526020016000206000820151816000015560208201518160010160006101000a81548173ffffffffffffffffffffffffffffffffffffffff021916908373ffffffffffffffffffffffffffffffffffffffff1602179055506040820151816002015560608201518160030160006101000a81548173ffffffffffffffffffffffffffffffffffffffff021916908373ffffffffffffffffffffffffffffffffffffffff16021790555060808201518160040160006101000a81548173ffffffffffffffffffffffffffffffffffffffff021916908373ffffffffffffffffffffffffffffffffffffffff16021790555060a0820151816005015560c08201518160060160006101000a81548160ff0219169083151502179055509050508373ffffffffffffffffffffffffffffffffffffffff166323b872dd3330866040518463ffffffff1660e01b8152600401610acd93929190611b05565b600060405180830381600087803b158015610ae757600080fd5b505af1158015610afb573d6000803e3d6000fd5b50505050828473ffffffffffffffffffffffffffffffffffffffff16827f045dfa01dcba2b36aba1d3dc4a874f4b0c5d2fbeb8d2c4b34a7d88c8d8f929d1336000876000604051610b4f9493929190611b4b565b60405180910390a450610b60611501565b505050565b600360009054906101000a900473ffffffffffffffffffffffffffffffffffffffff1673ffffffffffffffffffffffffffffffffffffffff163373ffffffffffffffffffffffffffffffffffffffff1614610bf5576040517f08c379a0000000000000000000000000000000000000000000000000000000008152600401610bec90611c02565b60405180910390fd5b60006004549050816004819055507f522acc74fb3f21f3b09a9a4667b5faba86eb39c7f6b916a64f9114e68765abb48183604051610c34929190611c22565b60405180910390a15050565b600360009054906101000a900473ffffffffffffffffffffffffffffffffffffffff1681565b60606000610c746001611497565b905060008167ffffffffffffffff811115610c9257610c91611955565b5b604051908082528060200260200182016040528015610ccb57816020015b610cb861150b565b815260200190600190039081610cb05790505b5090506000805b83811015610e9b57600060056000600184610ced9190611984565b81526020019081526020016000206000015490506000600560008381526020019081526020016000209050806040518060e0016040529081600082015481526020016001820160009054906101000a900473ffffffffffffffffffffffffffffffffffffffff1673ffffffffffffffffffffffffffffffffffffffff1673ffffffffffffffffffffffffffffffffffffffff168152602001600282015481526020016003820160009054906101000a900473ffffffffffffffffffffffffffffffffffffffff1673ffffffffffffffffffffffffffffffffffffffff1673ffffffffffffffffffffffffffffffffffffffff1681526020016004820160009054906101000a900473ffffffffffffffffffffffffffffffffffffffff1673ffffffffffffffffffffffffffffffffffffffff1673ffffffffffffffffffffffffffffffffffffffff168152602001600582015481526020016006820160009054906101000a900460ff161515151581525050858581518110610e7257610e716119b8565b5b6020026020010181905250600184610e8a9190611984565b935050508080600101915050610cd2565b5081935050505090565b610ead6114a5565b600060056000838152602001908152602001600020600501549050600060056000848152602001908152602001600020600201549050813414610f25576040517f08c379a0000000000000000000000000000000000000000000000000000000008152600401610f1c90611cbd565b60405180910390fd5b7f4696d73b8c735449d3027556811b9f6ce378e814741cd349b394312690af80003483604051610f56929190611d29565b60405180910390a16005600084815260200190815260200160002060030160009054906101000a900473ffffffffffffffffffffffffffffffffffffffff1673ffffffffffffffffffffffffffffffffffffffff166108fc349081150290604051600060405180830381858888f19350505050158015610fda573d6000803e3d6000fd5b508373ffffffffffffffffffffffffffffffffffffffff166323b872dd3033846040518463ffffffff1660e01b815260040161101893929190611b05565b600060405180830381600087803b15801561103257600080fd5b505af1158015611046573d6000803e3d6000fd5b50505050336005600085815260200190815260200160002060040160006101000a81548173ffffffffffffffffffffffffffffffffffffffff021916908373ffffffffffffffffffffffffffffffffffffffff16021790555060016005600085815260200190815260200160002060060160006101000a81548160ff0219169083151502179055506110d860026114eb565b600360009054906101000a900473ffffffffffffffffffffffffffffffffffffffff1673ffffffffffffffffffffffffffffffffffffffff166108fc6004549081150290604051600060405180830381858888f19350505050158015611142573d6000803e3d6000fd5b50505061114d611501565b5050565b60045481565b606060006111656001611497565b905060008060005b83811015611207573373ffffffffffffffffffffffffffffffffffffffff166005600060018461119d9190611984565b815260200190815260200160002060030160009054906101000a900473ffffffffffffffffffffffffffffffffffffffff1673ffffffffffffffffffffffffffffffffffffffff16036111fa576001836111f79190611984565b92505b808060010191505061116d565b5060008267ffffffffffffffff81111561122457611223611955565b5b60405190808252806020026020018201604052801561125d57816020015b61124a61150b565b8152602001906001900390816112425790505b50905060005b8481101561148c573373ffffffffffffffffffffffffffffffffffffffff16600560006001846112939190611984565b815260200190815260200160002060030160009054906101000a900473ffffffffffffffffffffffffffffffffffffffff1673ffffffffffffffffffffffffffffffffffffffff160361147f5760006001826112ef9190611984565b90506000600560008381526020019081526020016000209050806040518060e0016040529081600082015481526020016001820160009054906101000a900473ffffffffffffffffffffffffffffffffffffffff1673ffffffffffffffffffffffffffffffffffffffff1673ffffffffffffffffffffffffffffffffffffffff168152602001600282015481526020016003820160009054906101000a900473ffffffffffffffffffffffffffffffffffffffff1673ffffffffffffffffffffffffffffffffffffffff1673ffffffffffffffffffffffffffffffffffffffff1681526020016004820160009054906101000a900473ffffffffffffffffffffffffffffffffffffffff1673ffffffffffffffffffffffffffffffffffffffff1673ffffffffffffffffffffffffffffffffffffffff168152602001600582015481526020016006820160009054906101000a900460ff161515151581525050848681518110611462576114616119b8565b5b602002602001018190525060018561147a9190611984565b945050505b8080600101915050611263565b508094505050505090565b600081600001549050919050565b6002600054036114e1576040517f3ee5aeb500000000000000000000000000000000000000000000000000000000815260040160405180910390fd5b6002600081905550565b6001816000016000828254019250508190555050565b6001600081905550565b6040518060e0016040528060008152602001600073ffffffffffffffffffffffffffffffffffffffff16815260200160008152602001600073ffffffffffffffffffffffffffffffffffffffff168152602001600073ffffffffffffffffffffffffffffffffffffffff168152602001600081526020016000151581525090565b600081519050919050565b600082825260208201905092915050565b6000819050602082019050919050565b6000819050919050565b6115cb816115b8565b82525050565b600073ffffffffffffffffffffffffffffffffffffffff82169050919050565b60006115fc826115d1565b9050919050565b61160c816115f1565b82525050565b600061161d826115d1565b9050919050565b61162d81611612565b82525050565b60008115159050919050565b61164881611633565b82525050565b60e08201600082015161166460008501826115c2565b5060208201516116776020850182611603565b50604082015161168a60408501826115c2565b50606082015161169d6060850182611624565b5060808201516116b06080850182611624565b5060a08201516116c360a08501826115c2565b5060c08201516116d660c085018261163f565b50505050565b60006116e8838361164e565b60e08301905092915050565b6000602082019050919050565b600061170c8261158c565b6117168185611597565b9350611721836115a8565b8060005b8381101561175257815161173988826116dc565b9750611744836116f4565b925050600181019050611725565b5085935050505092915050565b600060208201905081810360008301526117798184611701565b905092915050565b61178a816115b8565b82525050565b60006020820190506117a56000830184611781565b92915050565b600080fd5b6117b9816115f1565b81146117c457600080fd5b50565b6000813590506117d6816117b0565b92915050565b6117e5816115b8565b81146117f057600080fd5b50565b600081359050611802816117dc565b92915050565b600080600060608486031215611821576118206117ab565b5b600061182f868287016117c7565b9350506020611840868287016117f3565b9250506040611851868287016117f3565b9150509250925092565b600060208284031215611871576118706117ab565b5b600061187f848285016117f3565b91505092915050565b61189181611612565b82525050565b60006020820190506118ac6000830184611888565b92915050565b600080604083850312156118c9576118c86117ab565b5b60006118d7858286016117c7565b92505060206118e8858286016117f3565b9150509250929050565b7f4e487b7100000000000000000000000000000000000000000000000000000000600052601160045260246000fd5b600061192c826115b8565b9150611937836115b8565b925082820390508181111561194f5761194e6118f2565b5b92915050565b7f4e487b7100000000000000000000000000000000000000000000000000000000600052604160045260246000fd5b600061198f826115b8565b915061199a836115b8565b92508282019050808211156119b2576119b16118f2565b5b92915050565b7f4e487b7100000000000000000000000000000000000000000000000000000000600052603260045260246000fd5b600082825260208201905092915050565b7f5072696365206d757374206265206174206c6561737420312077656900000000600082015250565b6000611a2e601c836119e7565b9150611a39826119f8565b602082019050919050565b60006020820190508181036000830152611a5d81611a21565b9050919050565b7f5072696365206d75737420626520657175616c20746f206c697374696e67207060008201527f7269636500000000000000000000000000000000000000000000000000000000602082015250565b6000611ac06024836119e7565b9150611acb82611a64565b604082019050919050565b60006020820190508181036000830152611aef81611ab3565b9050919050565b611aff816115f1565b82525050565b6000606082019050611b1a6000830186611af6565b611b276020830185611af6565b611b346040830184611781565b949350505050565b611b4581611633565b82525050565b6000608082019050611b606000830187611af6565b611b6d6020830186611af6565b611b7a6040830185611781565b611b876060830184611b3c565b95945050505050565b7f4f6e6c7920746865206f776e65722063616e2075706461746520746865206c6960008201527f7374696e67207072696365000000000000000000000000000000000000000000602082015250565b6000611bec602b836119e7565b9150611bf782611b90565b604082019050919050565b60006020820190508181036000830152611c1b81611bdf565b9050919050565b6000604082019050611c376000830185611781565b611c446020830184611781565b9392505050565b7f506c65617365207375626d6974207468652061736b696e67207072696365207460008201527f6f20636f6d706c65746520746865207075726368617365000000000000000000602082015250565b6000611ca76037836119e7565b9150611cb282611c4b565b604082019050919050565b60006020820190508181036000830152611cd681611c9a565b9050919050565b7f436865636b696e67207072696365206d61746368000000000000000000000000600082015250565b6000611d136014836119e7565b9150611d1e82611cdd565b602082019050919050565b6000606082019050611d3e6000830185611781565b611d4b6020830184611781565b8181036040830152611d5c81611d06565b9050939250505056fea26469706673582212204b3685d850b09aeb290c6fb9117f14411279dfb69b25ab4bc96689275e8efc0064736f6c63430008180033",
  "linkReferences": {},
  "deployedLinkReferences": {}
}