{
	"_format": "hh-sol-artifact-1",
	"contractName": "NFT",
	"sourceName": "contracts/NFT.sol",
	"abi": [
		{
			"inputs": [
				{
					"internalType": "address",
					"name": "marketplaceAddress",
					"type": "address"
				}
			],
			"stateMutability": "nonpayable",
			"type": "constructor"
		},
		{
			"inputs": [
				{
					"internalType": "address",
					"name": "sender",
					"type": "address"
				},
				{
					"internalType": "uint256",
					"name": "tokenId",
					"type": "uint256"
				},
				{
					"internalType": "address",
					"name": "owner",
					"type": "address"
				}
			],
			"name": "ERC721IncorrectOwner",
			"type": "error"
		},
		{
			"inputs": [
				{
					"internalType": "address",
					"name": "operator",
					"type": "address"
				},
				{
					"internalType": "uint256",
					"name": "tokenId",
					"type": "uint256"
				}
			],
			"name": "ERC721InsufficientApproval",
			"type": "error"
		},
		{
			"inputs": [
				{
					"internalType": "address",
					"name": "approver",
					"type": "address"
				}
			],
			"name": "ERC721InvalidApprover",
			"type": "error"
		},
		{
			"inputs": [
				{
					"internalType": "address",
					"name": "operator",
					"type": "address"
				}
			],
			"name": "ERC721InvalidOperator",
			"type": "error"
		},
		{
			"inputs": [
				{
					"internalType": "address",
					"name": "owner",
					"type": "address"
				}
			],
			"name": "ERC721InvalidOwner",
			"type": "error"
		},
		{
			"inputs": [
				{
					"internalType": "address",
					"name": "receiver",
					"type": "address"
				}
			],
			"name": "ERC721InvalidReceiver",
			"type": "error"
		},
		{
			"inputs": [
				{
					"internalType": "address",
					"name": "sender",
					"type": "address"
				}
			],
			"name": "ERC721InvalidSender",
			"type": "error"
		},
		{
			"inputs": [
				{
					"internalType": "uint256",
					"name": "tokenId",
					"type": "uint256"
				}
			],
			"name": "ERC721NonexistentToken",
			"type": "error"
		},
		{
			"anonymous": false,
			"inputs": [
				{
					"indexed": true,
					"internalType": "address",
					"name": "owner",
					"type": "address"
				},
				{
					"indexed": true,
					"internalType": "address",
					"name": "approved",
					"type": "address"
				},
				{
					"indexed": true,
					"internalType": "uint256",
					"name": "tokenId",
					"type": "uint256"
				}
			],
			"name": "Approval",
			"type": "event"
		},
		{
			"anonymous": false,
			"inputs": [
				{
					"indexed": true,
					"internalType": "address",
					"name": "owner",
					"type": "address"
				},
				{
					"indexed": true,
					"internalType": "address",
					"name": "operator",
					"type": "address"
				},
				{
					"indexed": false,
					"internalType": "bool",
					"name": "approved",
					"type": "bool"
				}
			],
			"name": "ApprovalForAll",
			"type": "event"
		},
		{
			"anonymous": false,
			"inputs": [
				{
					"indexed": false,
					"internalType": "uint256",
					"name": "_fromTokenId",
					"type": "uint256"
				},
				{
					"indexed": false,
					"internalType": "uint256",
					"name": "_toTokenId",
					"type": "uint256"
				}
			],
			"name": "BatchMetadataUpdate",
			"type": "event"
		},
		{
			"anonymous": false,
			"inputs": [
				{
					"indexed": false,
					"internalType": "uint256",
					"name": "_tokenId",
					"type": "uint256"
				}
			],
			"name": "MetadataUpdate",
			"type": "event"
		},
		{
			"anonymous": false,
			"inputs": [
				{
					"indexed": true,
					"internalType": "uint256",
					"name": "tokenId",
					"type": "uint256"
				},
				{
					"indexed": false,
					"internalType": "address",
					"name": "owner",
					"type": "address"
				},
				{
					"indexed": false,
					"internalType": "string",
					"name": "tokenURI",
					"type": "string"
				}
			],
			"name": "TokenCreated",
			"type": "event"
		},
		{
			"anonymous": false,
			"inputs": [
				{
					"indexed": true,
					"internalType": "address",
					"name": "from",
					"type": "address"
				},
				{
					"indexed": true,
					"internalType": "address",
					"name": "to",
					"type": "address"
				},
				{
					"indexed": true,
					"internalType": "uint256",
					"name": "tokenId",
					"type": "uint256"
				}
			],
			"name": "Transfer",
			"type": "event"
		},
		{
			"inputs": [
				{
					"internalType": "address",
					"name": "to",
					"type": "address"
				},
				{
					"internalType": "uint256",
					"name": "tokenId",
					"type": "uint256"
				}
			],
			"name": "approve",
			"outputs": [],
			"stateMutability": "nonpayable",
			"type": "function"
		},
		{
			"inputs": [
				{
					"internalType": "address",
					"name": "owner",
					"type": "address"
				}
			],
			"name": "balanceOf",
			"outputs": [
				{
					"internalType": "uint256",
					"name": "",
					"type": "uint256"
				}
			],
			"stateMutability": "view",
			"type": "function"
		},
		{
			"inputs": [],
			"name": "contractAddress",
			"outputs": [
				{
					"internalType": "address",
					"name": "",
					"type": "address"
				}
			],
			"stateMutability": "view",
			"type": "function"
		},
		{
			"inputs": [
				{
					"internalType": "string",
					"name": "tokenURI",
					"type": "string"
				}
			],
			"name": "createToken",
			"outputs": [
				{
					"internalType": "uint256",
					"name": "",
					"type": "uint256"
				}
			],
			"stateMutability": "nonpayable",
			"type": "function"
		},
		{
			"inputs": [
				{
					"internalType": "uint256",
					"name": "tokenId",
					"type": "uint256"
				}
			],
			"name": "getApproved",
			"outputs": [
				{
					"internalType": "address",
					"name": "",
					"type": "address"
				}
			],
			"stateMutability": "view",
			"type": "function"
		},
		{
			"inputs": [
				{
					"internalType": "string",
					"name": "tokenURI",
					"type": "string"
				}
			],
			"name": "getTokenIDByURI",
			"outputs": [
				{
					"internalType": "uint256",
					"name": "",
					"type": "uint256"
				}
			],
			"stateMutability": "view",
			"type": "function"
		},
		{
			"inputs": [
				{
					"internalType": "address",
					"name": "owner",
					"type": "address"
				},
				{
					"internalType": "address",
					"name": "operator",
					"type": "address"
				}
			],
			"name": "isApprovedForAll",
			"outputs": [
				{
					"internalType": "bool",
					"name": "",
					"type": "bool"
				}
			],
			"stateMutability": "view",
			"type": "function"
		},
		{
			"inputs": [],
			"name": "name",
			"outputs": [
				{
					"internalType": "string",
					"name": "",
					"type": "string"
				}
			],
			"stateMutability": "view",
			"type": "function"
		},
		{
			"inputs": [
				{
					"internalType": "uint256",
					"name": "tokenId",
					"type": "uint256"
				}
			],
			"name": "ownerOf",
			"outputs": [
				{
					"internalType": "address",
					"name": "",
					"type": "address"
				}
			],
			"stateMutability": "view",
			"type": "function"
		},
		{
			"inputs": [
				{
					"internalType": "address",
					"name": "from",
					"type": "address"
				},
				{
					"internalType": "address",
					"name": "to",
					"type": "address"
				},
				{
					"internalType": "uint256",
					"name": "tokenId",
					"type": "uint256"
				}
			],
			"name": "safeTransferFrom",
			"outputs": [],
			"stateMutability": "nonpayable",
			"type": "function"
		},
		{
			"inputs": [
				{
					"internalType": "address",
					"name": "from",
					"type": "address"
				},
				{
					"internalType": "address",
					"name": "to",
					"type": "address"
				},
				{
					"internalType": "uint256",
					"name": "tokenId",
					"type": "uint256"
				},
				{
					"internalType": "bytes",
					"name": "data",
					"type": "bytes"
				}
			],
			"name": "safeTransferFrom",
			"outputs": [],
			"stateMutability": "nonpayable",
			"type": "function"
		},
		{
			"inputs": [
				{
					"internalType": "address",
					"name": "operator",
					"type": "address"
				},
				{
					"internalType": "bool",
					"name": "approved",
					"type": "bool"
				}
			],
			"name": "setApprovalForAll",
			"outputs": [],
			"stateMutability": "nonpayable",
			"type": "function"
		},
		{
			"inputs": [
				{
					"internalType": "bytes4",
					"name": "interfaceId",
					"type": "bytes4"
				}
			],
			"name": "supportsInterface",
			"outputs": [
				{
					"internalType": "bool",
					"name": "",
					"type": "bool"
				}
			],
			"stateMutability": "view",
			"type": "function"
		},
		{
			"inputs": [],
			"name": "symbol",
			"outputs": [
				{
					"internalType": "string",
					"name": "",
					"type": "string"
				}
			],
			"stateMutability": "view",
			"type": "function"
		},
		{
			"inputs": [
				{
					"internalType": "uint256",
					"name": "tokenId",
					"type": "uint256"
				}
			],
			"name": "tokenURI",
			"outputs": [
				{
					"internalType": "string",
					"name": "",
					"type": "string"
				}
			],
			"stateMutability": "view",
			"type": "function"
		},
		{
			"inputs": [
				{
					"internalType": "address",
					"name": "from",
					"type": "address"
				},
				{
					"internalType": "address",
					"name": "to",
					"type": "address"
				},
				{
					"internalType": "uint256",
					"name": "tokenId",
					"type": "uint256"
				}
			],
			"name": "transferFrom",
			"outputs": [],
			"stateMutability": "nonpayable",
			"type": "function"
		}
	],
	"bytecode": "0x60806040523480156200001157600080fd5b5060405162002ac038038062002ac083398181016040528101906200003791906200017b565b6040518060400160405280601081526020017f4d657461766572736520546f6b656e73000000000000000000000000000000008152506040518060400160405280600481526020017f4d455454000000000000000000000000000000000000000000000000000000008152508160009081620000b4919062000427565b508060019081620000c6919062000427565b50505080600860006101000a81548173ffffffffffffffffffffffffffffffffffffffff021916908373ffffffffffffffffffffffffffffffffffffffff160217905550506200050e565b600080fd5b600073ffffffffffffffffffffffffffffffffffffffff82169050919050565b6000620001438262000116565b9050919050565b620001558162000136565b81146200016157600080fd5b50565b60008151905062000175816200014a565b92915050565b60006020828403121562000194576200019362000111565b5b6000620001a48482850162000164565b91505092915050565b600081519050919050565b7f4e487b7100000000000000000000000000000000000000000000000000000000600052604160045260246000fd5b7f4e487b7100000000000000000000000000000000000000000000000000000000600052602260045260246000fd5b600060028204905060018216806200022f57607f821691505b602082108103620002455762000244620001e7565b5b50919050565b60008190508160005260206000209050919050565b60006020601f8301049050919050565b600082821b905092915050565b600060088302620002af7fffffffffffffffffffffffffffffffffffffffffffffffffffffffffffffffff8262000270565b620002bb868362000270565b95508019841693508086168417925050509392505050565b6000819050919050565b6000819050919050565b60006200030862000302620002fc84620002d3565b620002dd565b620002d3565b9050919050565b6000819050919050565b6200032483620002e7565b6200033c62000333826200030f565b8484546200027d565b825550505050565b600090565b6200035362000344565b6200036081848462000319565b505050565b5b8181101562000388576200037c60008262000349565b60018101905062000366565b5050565b601f821115620003d757620003a1816200024b565b620003ac8462000260565b81016020851015620003bc578190505b620003d4620003cb8562000260565b83018262000365565b50505b505050565b600082821c905092915050565b6000620003fc60001984600802620003dc565b1980831691505092915050565b6000620004178383620003e9565b9150826002028217905092915050565b6200043282620001ad565b67ffffffffffffffff8111156200044e576200044d620001b8565b5b6200045a825462000216565b620004678282856200038c565b600060209050601f8311600181146200049f57600084156200048a578287015190505b62000496858262000409565b86555062000506565b601f198416620004af866200024b565b60005b82811015620004d957848901518255600182019150602085019450602081019050620004b2565b86831015620004f95784890151620004f5601f891682620003e9565b8355505b6001600288020188555050505b505050505050565b6125a2806200051e6000396000f3fe608060405234801561001057600080fd5b50600436106101005760003560e01c806370a0823111610097578063c87b56dd11610066578063c87b56dd146102bd578063e647eef2146102ed578063e985e9c51461031d578063f6b4dfb41461034d57610100565b806370a082311461023757806395d89b4114610267578063a22cb46514610285578063b88d4fde146102a157610100565b806323b872dd116100d357806323b872dd1461019f57806342842e0e146101bb57806345576f94146101d75780636352211e1461020757610100565b806301ffc9a71461010557806306fdde0314610135578063081812fc14610153578063095ea7b314610183575b600080fd5b61011f600480360381019061011a91906119d1565b61036b565b60405161012c9190611a19565b60405180910390f35b61013d6103cc565b60405161014a9190611ac4565b60405180910390f35b61016d60048036038101906101689190611b1c565b61045e565b60405161017a9190611b8a565b60405180910390f35b61019d60048036038101906101989190611bd1565b61047a565b005b6101b960048036038101906101b49190611c11565b610490565b005b6101d560048036038101906101d09190611c11565b610592565b005b6101f160048036038101906101ec9190611d99565b6105b2565b6040516101fe9190611df1565b60405180910390f35b610221600480360381019061021c9190611b1c565b610673565b60405161022e9190611b8a565b60405180910390f35b610251600480360381019061024c9190611e0c565b610685565b60405161025e9190611df1565b60405180910390f35b61026f61073f565b60405161027c9190611ac4565b60405180910390f35b61029f600480360381019061029a9190611e65565b6107d1565b005b6102bb60048036038101906102b69190611f46565b6107e7565b005b6102d760048036038101906102d29190611b1c565b610804565b6040516102e49190611ac4565b60405180910390f35b61030760048036038101906103029190611d99565b610917565b6040516103149190611df1565b60405180910390f35b61033760048036038101906103329190611fc9565b61099f565b6040516103449190611a19565b60405180910390f35b610355610a33565b6040516103629190611b8a565b60405180910390f35b6000634906490660e01b7bffffffffffffffffffffffffffffffffffffffffffffffffffffffff1916827bffffffffffffffffffffffffffffffffffffffffffffffffffffffff191614806103c557506103c482610a59565b5b9050919050565b6060600080546103db90612038565b80601f016020809104026020016040519081016040528092919081815260200182805461040790612038565b80156104545780601f1061042957610100808354040283529160200191610454565b820191906000526020600020905b81548152906001019060200180831161043757829003601f168201915b5050505050905090565b600061046982610b3b565b5061047382610bc3565b9050919050565b61048c8282610487610c00565b610c08565b5050565b600073ffffffffffffffffffffffffffffffffffffffff168273ffffffffffffffffffffffffffffffffffffffff16036105025760006040517f64a0ae920000000000000000000000000000000000000000000000000000000081526004016104f99190611b8a565b60405180910390fd5b60006105168383610511610c00565b610c1a565b90508373ffffffffffffffffffffffffffffffffffffffff168173ffffffffffffffffffffffffffffffffffffffff161461058c578382826040517f64283d7b00000000000000000000000000000000000000000000000000000000815260040161058393929190612069565b60405180910390fd5b50505050565b6105ad838383604051806020016040528060008152506107e7565b505050565b60006105be6007610e34565b60006105ca6007610e4a565b90506105d63382610e58565b6105e08184610f51565b806009846040516105f191906120dc565b908152602001604051809103902081905550610630600860009054906101000a900473ffffffffffffffffffffffffffffffffffffffff1660016107d1565b807f82a09cc58c9cecf0eb61d8994283ec804165931801f8b77e42dcb3b556c5c5be33856040516106629291906120f3565b60405180910390a280915050919050565b600061067e82610b3b565b9050919050565b60008073ffffffffffffffffffffffffffffffffffffffff168273ffffffffffffffffffffffffffffffffffffffff16036106f85760006040517f89c62b640000000000000000000000000000000000000000000000000000000081526004016106ef9190611b8a565b60405180910390fd5b600360008373ffffffffffffffffffffffffffffffffffffffff1673ffffffffffffffffffffffffffffffffffffffff168152602001908152602001600020549050919050565b60606001805461074e90612038565b80601f016020809104026020016040519081016040528092919081815260200182805461077a90612038565b80156107c75780601f1061079c576101008083540402835291602001916107c7565b820191906000526020600020905b8154815290600101906020018083116107aa57829003601f168201915b5050505050905090565b6107e36107dc610c00565b8383610fad565b5050565b6107f2848484610490565b6107fe8484848461111c565b50505050565b606061080f82610b3b565b50600060066000848152602001908152602001600020805461083090612038565b80601f016020809104026020016040519081016040528092919081815260200182805461085c90612038565b80156108a95780601f1061087e576101008083540402835291602001916108a9565b820191906000526020600020905b81548152906001019060200180831161088c57829003601f168201915b5050505050905060006108ba6112d3565b905060008151036108cf578192505050610912565b6000825111156109045780826040516020016108ec929190612123565b60405160208183030381529060405292505050610912565b61090d846112ea565b925050505b919050565b60008060098360405161092a91906120dc565b90815260200160405180910390205403610979576040517f08c379a000000000000000000000000000000000000000000000000000000000815260040161097090612193565b60405180910390fd5b60098260405161098991906120dc565b9081526020016040518091039020549050919050565b6000600560008473ffffffffffffffffffffffffffffffffffffffff1673ffffffffffffffffffffffffffffffffffffffff16815260200190815260200160002060008373ffffffffffffffffffffffffffffffffffffffff1673ffffffffffffffffffffffffffffffffffffffff16815260200190815260200160002060009054906101000a900460ff16905092915050565b600860009054906101000a900473ffffffffffffffffffffffffffffffffffffffff1681565b60007f80ac58cd000000000000000000000000000000000000000000000000000000007bffffffffffffffffffffffffffffffffffffffffffffffffffffffff1916827bffffffffffffffffffffffffffffffffffffffffffffffffffffffff19161480610b2457507f5b5e139f000000000000000000000000000000000000000000000000000000007bffffffffffffffffffffffffffffffffffffffffffffffffffffffff1916827bffffffffffffffffffffffffffffffffffffffffffffffffffffffff1916145b80610b345750610b3382611353565b5b9050919050565b600080610b47836113bd565b9050600073ffffffffffffffffffffffffffffffffffffffff168173ffffffffffffffffffffffffffffffffffffffff1603610bba57826040517f7e273289000000000000000000000000000000000000000000000000000000008152600401610bb19190611df1565b60405180910390fd5b80915050919050565b60006004600083815260200190815260200160002060009054906101000a900473ffffffffffffffffffffffffffffffffffffffff169050919050565b600033905090565b610c1583838360016113fa565b505050565b600080610c26846113bd565b9050600073ffffffffffffffffffffffffffffffffffffffff168373ffffffffffffffffffffffffffffffffffffffff1614610c6857610c678184866115bf565b5b600073ffffffffffffffffffffffffffffffffffffffff168173ffffffffffffffffffffffffffffffffffffffff1614610cf957610caa6000856000806113fa565b6001600360008373ffffffffffffffffffffffffffffffffffffffff1673ffffffffffffffffffffffffffffffffffffffff168152602001908152602001600020600082825403925050819055505b600073ffffffffffffffffffffffffffffffffffffffff168573ffffffffffffffffffffffffffffffffffffffff1614610d7c576001600360008773ffffffffffffffffffffffffffffffffffffffff1673ffffffffffffffffffffffffffffffffffffffff168152602001908152602001600020600082825401925050819055505b846002600086815260200190815260200160002060006101000a81548173ffffffffffffffffffffffffffffffffffffffff021916908373ffffffffffffffffffffffffffffffffffffffff160217905550838573ffffffffffffffffffffffffffffffffffffffff168273ffffffffffffffffffffffffffffffffffffffff167fddf252ad1be2c89b69c2b068fc378daa952ba7f163c4a11628f55a4df523b3ef60405160405180910390a4809150509392505050565b6001816000016000828254019250508190555050565b600081600001549050919050565b600073ffffffffffffffffffffffffffffffffffffffff168273ffffffffffffffffffffffffffffffffffffffff1603610eca5760006040517f64a0ae92000000000000000000000000000000000000000000000000000000008152600401610ec19190611b8a565b60405180910390fd5b6000610ed883836000610c1a565b9050600073ffffffffffffffffffffffffffffffffffffffff168173ffffffffffffffffffffffffffffffffffffffff1614610f4c5760006040517f73c6ac6e000000000000000000000000000000000000000000000000000000008152600401610f439190611b8a565b60405180910390fd5b505050565b80600660008481526020019081526020016000209081610f71919061235f565b507ff8e1a15aba9398e019f0b49df1a4fde98ee17ae345cb5f6b5e2c27f5033e8ce782604051610fa19190611df1565b60405180910390a15050565b600073ffffffffffffffffffffffffffffffffffffffff168273ffffffffffffffffffffffffffffffffffffffff160361101e57816040517f5b08ba180000000000000000000000000000000000000000000000000000000081526004016110159190611b8a565b60405180910390fd5b80600560008573ffffffffffffffffffffffffffffffffffffffff1673ffffffffffffffffffffffffffffffffffffffff16815260200190815260200160002060008473ffffffffffffffffffffffffffffffffffffffff1673ffffffffffffffffffffffffffffffffffffffff16815260200190815260200160002060006101000a81548160ff0219169083151502179055508173ffffffffffffffffffffffffffffffffffffffff168373ffffffffffffffffffffffffffffffffffffffff167f17307eab39ab6107e8899845ad3d59bd9653f200f220920489ca2b5937696c318360405161110f9190611a19565b60405180910390a3505050565b60008373ffffffffffffffffffffffffffffffffffffffff163b11156112cd578273ffffffffffffffffffffffffffffffffffffffff1663150b7a02611160610c00565b8685856040518563ffffffff1660e01b81526004016111829493929190612486565b6020604051808303816000875af19250505080156111be57506040513d601f19601f820116820180604052508101906111bb91906124e7565b60015b611242573d80600081146111ee576040519150601f19603f3d011682016040523d82523d6000602084013e6111f3565b606091505b50600081510361123a57836040517f64a0ae920000000000000000000000000000000000000000000000000000000081526004016112319190611b8a565b60405180910390fd5b805181602001fd5b63150b7a0260e01b7bffffffffffffffffffffffffffffffffffffffffffffffffffffffff1916817bffffffffffffffffffffffffffffffffffffffffffffffffffffffff1916146112cb57836040517f64a0ae920000000000000000000000000000000000000000000000000000000081526004016112c29190611b8a565b60405180910390fd5b505b50505050565b606060405180602001604052806000815250905090565b60606112f582610b3b565b5060006113006112d3565b90506000815111611320576040518060200160405280600081525061134b565b8061132a84611683565b60405160200161133b929190612123565b6040516020818303038152906040525b915050919050565b60007f01ffc9a7000000000000000000000000000000000000000000000000000000007bffffffffffffffffffffffffffffffffffffffffffffffffffffffff1916827bffffffffffffffffffffffffffffffffffffffffffffffffffffffff1916149050919050565b60006002600083815260200190815260200160002060009054906101000a900473ffffffffffffffffffffffffffffffffffffffff169050919050565b80806114335750600073ffffffffffffffffffffffffffffffffffffffff168273ffffffffffffffffffffffffffffffffffffffff1614155b1561156757600061144384610b3b565b9050600073ffffffffffffffffffffffffffffffffffffffff168373ffffffffffffffffffffffffffffffffffffffff16141580156114ae57508273ffffffffffffffffffffffffffffffffffffffff168173ffffffffffffffffffffffffffffffffffffffff1614155b80156114c157506114bf818461099f565b155b1561150357826040517fa9fbf51f0000000000000000000000000000000000000000000000000000000081526004016114fa9190611b8a565b60405180910390fd5b811561156557838573ffffffffffffffffffffffffffffffffffffffff168273ffffffffffffffffffffffffffffffffffffffff167f8c5be1e5ebec7d5bd14f71427d1e84f3dd0314c0f7b2291e5b200ac8c7c3b92560405160405180910390a45b505b836004600085815260200190815260200160002060006101000a81548173ffffffffffffffffffffffffffffffffffffffff021916908373ffffffffffffffffffffffffffffffffffffffff16021790555050505050565b6115ca838383611751565b61167e57600073ffffffffffffffffffffffffffffffffffffffff168373ffffffffffffffffffffffffffffffffffffffff160361163f57806040517f7e2732890000000000000000000000000000000000000000000000000000000081526004016116369190611df1565b60405180910390fd5b81816040517f177e802f000000000000000000000000000000000000000000000000000000008152600401611675929190612514565b60405180910390fd5b505050565b60606000600161169284611812565b01905060008167ffffffffffffffff8111156116b1576116b0611c6e565b5b6040519080825280601f01601f1916602001820160405280156116e35781602001600182028036833780820191505090505b509050600082602001820190505b600115611746578080600190039150507f3031323334353637383961626364656600000000000000000000000000000000600a86061a8153600a858161173a5761173961253d565b5b049450600085036116f1575b819350505050919050565b60008073ffffffffffffffffffffffffffffffffffffffff168373ffffffffffffffffffffffffffffffffffffffff161415801561180957508273ffffffffffffffffffffffffffffffffffffffff168473ffffffffffffffffffffffffffffffffffffffff1614806117ca57506117c9848461099f565b5b8061180857508273ffffffffffffffffffffffffffffffffffffffff166117f083610bc3565b73ffffffffffffffffffffffffffffffffffffffff16145b5b90509392505050565b600080600090507a184f03e93ff9f4daa797ed6e38ed64bf6a1f0100000000000000008310611870577a184f03e93ff9f4daa797ed6e38ed64bf6a1f01000000000000000083816118665761186561253d565b5b0492506040810190505b6d04ee2d6d415b85acef810000000083106118ad576d04ee2d6d415b85acef810000000083816118a3576118a261253d565b5b0492506020810190505b662386f26fc1000083106118dc57662386f26fc1000083816118d2576118d161253d565b5b0492506010810190505b6305f5e1008310611905576305f5e10083816118fb576118fa61253d565b5b0492506008810190505b612710831061192a5761271083816119205761191f61253d565b5b0492506004810190505b6064831061194d57606483816119435761194261253d565b5b0492506002810190505b600a831061195c576001810190505b80915050919050565b6000604051905090565b600080fd5b600080fd5b60007fffffffff0000000000000000000000000000000000000000000000000000000082169050919050565b6119ae81611979565b81146119b957600080fd5b50565b6000813590506119cb816119a5565b92915050565b6000602082840312156119e7576119e661196f565b5b60006119f5848285016119bc565b91505092915050565b60008115159050919050565b611a13816119fe565b82525050565b6000602082019050611a2e6000830184611a0a565b92915050565b600081519050919050565b600082825260208201905092915050565b60005b83811015611a6e578082015181840152602081019050611a53565b60008484015250505050565b6000601f19601f8301169050919050565b6000611a9682611a34565b611aa08185611a3f565b9350611ab0818560208601611a50565b611ab981611a7a565b840191505092915050565b60006020820190508181036000830152611ade8184611a8b565b905092915050565b6000819050919050565b611af981611ae6565b8114611b0457600080fd5b50565b600081359050611b1681611af0565b92915050565b600060208284031215611b3257611b3161196f565b5b6000611b4084828501611b07565b91505092915050565b600073ffffffffffffffffffffffffffffffffffffffff82169050919050565b6000611b7482611b49565b9050919050565b611b8481611b69565b82525050565b6000602082019050611b9f6000830184611b7b565b92915050565b611bae81611b69565b8114611bb957600080fd5b50565b600081359050611bcb81611ba5565b92915050565b60008060408385031215611be857611be761196f565b5b6000611bf685828601611bbc565b9250506020611c0785828601611b07565b9150509250929050565b600080600060608486031215611c2a57611c2961196f565b5b6000611c3886828701611bbc565b9350506020611c4986828701611bbc565b9250506040611c5a86828701611b07565b9150509250925092565b600080fd5b600080fd5b7f4e487b7100000000000000000000000000000000000000000000000000000000600052604160045260246000fd5b611ca682611a7a565b810181811067ffffffffffffffff82111715611cc557611cc4611c6e565b5b80604052505050565b6000611cd8611965565b9050611ce48282611c9d565b919050565b600067ffffffffffffffff821115611d0457611d03611c6e565b5b611d0d82611a7a565b9050602081019050919050565b82818337600083830152505050565b6000611d3c611d3784611ce9565b611cce565b905082815260208101848484011115611d5857611d57611c69565b5b611d63848285611d1a565b509392505050565b600082601f830112611d8057611d7f611c64565b5b8135611d90848260208601611d29565b91505092915050565b600060208284031215611daf57611dae61196f565b5b600082013567ffffffffffffffff811115611dcd57611dcc611974565b5b611dd984828501611d6b565b91505092915050565b611deb81611ae6565b82525050565b6000602082019050611e066000830184611de2565b92915050565b600060208284031215611e2257611e2161196f565b5b6000611e3084828501611bbc565b91505092915050565b611e42816119fe565b8114611e4d57600080fd5b50565b600081359050611e5f81611e39565b92915050565b60008060408385031215611e7c57611e7b61196f565b5b6000611e8a85828601611bbc565b9250506020611e9b85828601611e50565b9150509250929050565b600067ffffffffffffffff821115611ec057611ebf611c6e565b5b611ec982611a7a565b9050602081019050919050565b6000611ee9611ee484611ea5565b611cce565b905082815260208101848484011115611f0557611f04611c69565b5b611f10848285611d1a565b509392505050565b600082601f830112611f2d57611f2c611c64565b5b8135611f3d848260208601611ed6565b91505092915050565b60008060008060808587031215611f6057611f5f61196f565b5b6000611f6e87828801611bbc565b9450506020611f7f87828801611bbc565b9350506040611f9087828801611b07565b925050606085013567ffffffffffffffff811115611fb157611fb0611974565b5b611fbd87828801611f18565b91505092959194509250565b60008060408385031215611fe057611fdf61196f565b5b6000611fee85828601611bbc565b9250506020611fff85828601611bbc565b9150509250929050565b7f4e487b7100000000000000000000000000000000000000000000000000000000600052602260045260246000fd5b6000600282049050600182168061205057607f821691505b60208210810361206357612062612009565b5b50919050565b600060608201905061207e6000830186611b7b565b61208b6020830185611de2565b6120986040830184611b7b565b949350505050565b600081905092915050565b60006120b682611a34565b6120c081856120a0565b93506120d0818560208601611a50565b80840191505092915050565b60006120e882846120ab565b915081905092915050565b60006040820190506121086000830185611b7b565b818103602083015261211a8184611a8b565b90509392505050565b600061212f82856120ab565b915061213b82846120ab565b91508190509392505050565b7f546f6b656e2055524920646f6573206e6f742065786973740000000000000000600082015250565b600061217d601883611a3f565b915061218882612147565b602082019050919050565b600060208201905081810360008301526121ac81612170565b9050919050565b60008190508160005260206000209050919050565b60006020601f8301049050919050565b600082821b905092915050565b6000600883026122157fffffffffffffffffffffffffffffffffffffffffffffffffffffffffffffffff826121d8565b61221f86836121d8565b95508019841693508086168417925050509392505050565b6000819050919050565b600061225c61225761225284611ae6565b612237565b611ae6565b9050919050565b6000819050919050565b61227683612241565b61228a61228282612263565b8484546121e5565b825550505050565b600090565b61229f612292565b6122aa81848461226d565b505050565b5b818110156122ce576122c3600082612297565b6001810190506122b0565b5050565b601f821115612313576122e4816121b3565b6122ed846121c8565b810160208510156122fc578190505b612310612308856121c8565b8301826122af565b50505b505050565b600082821c905092915050565b600061233660001984600802612318565b1980831691505092915050565b600061234f8383612325565b9150826002028217905092915050565b61236882611a34565b67ffffffffffffffff81111561238157612380611c6e565b5b61238b8254612038565b6123968282856122d2565b600060209050601f8311600181146123c957600084156123b7578287015190505b6123c18582612343565b865550612429565b601f1984166123d7866121b3565b60005b828110156123ff578489015182556001820191506020850194506020810190506123da565b8683101561241c5784890151612418601f891682612325565b8355505b6001600288020188555050505b505050505050565b600081519050919050565b600082825260208201905092915050565b600061245882612431565b612462818561243c565b9350612472818560208601611a50565b61247b81611a7a565b840191505092915050565b600060808201905061249b6000830187611b7b565b6124a86020830186611b7b565b6124b56040830185611de2565b81810360608301526124c7818461244d565b905095945050505050565b6000815190506124e1816119a5565b92915050565b6000602082840312156124fd576124fc61196f565b5b600061250b848285016124d2565b91505092915050565b60006040820190506125296000830185611b7b565b6125366020830184611de2565b9392505050565b7f4e487b7100000000000000000000000000000000000000000000000000000000600052601260045260246000fdfea264697066735822122079c1ec79b0fa4e80da9307ff55faeefc7dbbb175fe85d105bb939a6c6424445764736f6c63430008180033",
	"linkReferences": {},
	"deployedLinkReferences": {}
}